{
  "_format": "hh-sol-artifact-1",
  "contractName": "admin_manufacture",
  "sourceName": "contracts/Signup.sol",
  "abi": [
    {
      "inputs": [],
      "stateMutability": "nonpayable",
      "type": "constructor"
    },
    {
      "inputs": [],
      "name": "buyerCount",
      "outputs": [
        {
          "internalType": "uint256",
          "name": "",
          "type": "uint256"
        }
      ],
      "stateMutability": "view",
      "type": "function"
    },
    {
      "inputs": [],
      "name": "creationTime",
      "outputs": [
        {
          "internalType": "uint256",
          "name": "",
          "type": "uint256"
        }
      ],
      "stateMutability": "view",
      "type": "function"
    },
    {
      "inputs": [
        {
          "internalType": "address",
          "name": "userAddress",
          "type": "address"
        }
      ],
      "name": "getBuyer",
      "outputs": [
        {
          "internalType": "string",
          "name": "firstName",
          "type": "string"
        },
        {
          "internalType": "string",
          "name": "lastName",
          "type": "string"
        },
        {
          "internalType": "string",
          "name": "companyName",
          "type": "string"
        },
        {
          "internalType": "string",
          "name": "email",
          "type": "string"
        },
        {
          "internalType": "string",
          "name": "phoneNumber",
          "type": "string"
        },
        {
          "internalType": "string",
          "name": "password",
          "type": "string"
        }
      ],
      "stateMutability": "view",
      "type": "function"
    },
    {
      "inputs": [
        {
          "internalType": "address",
          "name": "userAddress",
          "type": "address"
        }
      ],
      "name": "getSupplier",
      "outputs": [
        {
          "internalType": "string",
          "name": "firstName",
          "type": "string"
        },
        {
          "internalType": "string",
          "name": "lastName",
          "type": "string"
        },
        {
          "internalType": "string",
          "name": "companyName",
          "type": "string"
        },
        {
          "internalType": "string",
          "name": "email",
          "type": "string"
        },
        {
          "internalType": "string",
          "name": "phoneNumber",
          "type": "string"
        },
        {
          "internalType": "string",
          "name": "password",
          "type": "string"
        }
      ],
      "stateMutability": "view",
      "type": "function"
    },
    {
      "inputs": [
        {
          "internalType": "address",
          "name": "userAddress",
          "type": "address"
        }
      ],
      "name": "isBuyer",
      "outputs": [
        {
          "internalType": "bool",
          "name": "",
          "type": "bool"
        }
      ],
      "stateMutability": "view",
      "type": "function"
    },
    {
      "inputs": [
        {
          "internalType": "address",
          "name": "userAddress",
          "type": "address"
        }
      ],
      "name": "isSupplier",
      "outputs": [
        {
          "internalType": "bool",
          "name": "",
          "type": "bool"
        }
      ],
      "stateMutability": "view",
      "type": "function"
    },
    {
      "inputs": [],
      "name": "owner",
      "outputs": [
        {
          "internalType": "address",
          "name": "",
          "type": "address"
        }
      ],
      "stateMutability": "view",
      "type": "function"
    },
    {
      "inputs": [
        {
          "internalType": "string",
          "name": "firstName",
          "type": "string"
        },
        {
          "internalType": "string",
          "name": "lastName",
          "type": "string"
        },
        {
          "internalType": "string",
          "name": "companyName",
          "type": "string"
        },
        {
          "internalType": "string",
          "name": "email",
          "type": "string"
        },
        {
          "internalType": "string",
          "name": "phoneNumber",
          "type": "string"
        },
        {
          "internalType": "string",
          "name": "password",
          "type": "string"
        }
      ],
      "name": "registerBuyer",
      "outputs": [
        {
          "internalType": "bool",
          "name": "",
          "type": "bool"
        }
      ],
      "stateMutability": "nonpayable",
      "type": "function"
    },
    {
      "inputs": [
        {
          "internalType": "string",
          "name": "firstName",
          "type": "string"
        },
        {
          "internalType": "string",
          "name": "lastName",
          "type": "string"
        },
        {
          "internalType": "string",
          "name": "companyName",
          "type": "string"
        },
        {
          "internalType": "string",
          "name": "email",
          "type": "string"
        },
        {
          "internalType": "string",
          "name": "phoneNumber",
          "type": "string"
        },
        {
          "internalType": "string",
          "name": "password",
          "type": "string"
        }
      ],
      "name": "registerSupplier",
      "outputs": [
        {
          "internalType": "bool",
          "name": "",
          "type": "bool"
        }
      ],
      "stateMutability": "nonpayable",
      "type": "function"
    },
    {
      "inputs": [],
      "name": "supplierCount",
      "outputs": [
        {
          "internalType": "uint256",
          "name": "",
          "type": "uint256"
        }
      ],
      "stateMutability": "view",
      "type": "function"
    }
  ],
  "bytecode": "0x608060405234801561001057600080fd5b50600080546001600160a01b0319163317905542600155610d70806100366000396000f3fe608060405234801561001057600080fd5b506004361061009e5760003560e01c80638da5cb5b116100665780638da5cb5b146101655780638ffd2411146101905780639e0cea05146101a3578063d8270dce146101ac578063fe7009f2146101b557600080fd5b8063140c6b91146100a35780632a55feec146100bf57806346336542146100fe5780634a3149451461012d5780635721e41914610140575b600080fd5b6100ac60035481565b6040519081526020015b60405180910390f35b6100ee6100cd366004610a3f565b6001600160a01b031660009081526004602052604090206006015460ff1690565b60405190151581526020016100b6565b6100ee61010c366004610a3f565b6001600160a01b031660009081526005602052604090206006015460ff1690565b6100ee61013b366004610b12565b6101c8565b61015361014e366004610a3f565b610351565b6040516100b696959493929190610c54565b600054610178906001600160a01b031681565b6040516001600160a01b0390911681526020016100b6565b6100ee61019e366004610b12565b610791565b6100ac60025481565b6100ac60015481565b6101536101c3366004610a3f565b6108fb565b3360009081526005602052604081206006015460ff16156102305760405162461bcd60e51b815260206004820152601860248201527f537570706c69657220616c7265616479206578697374732e000000000000000060448201526064015b60405180910390fd5b6040805160e0810182528881526020808201899052818301889052606082018790526080820186905260a08201859052600160c08301523360009081526005825292909220815180519293919261028a92849201906109a6565b5060208281015180516102a392600185019201906109a6565b50604082015180516102bf9160028401916020909101906109a6565b50606082015180516102db9160038401916020909101906109a6565b50608082015180516102f79160048401916020909101906109a6565b5060a082015180516103139160058401916020909101906109a6565b5060c091909101516006909101805460ff19169115159190911790556003805490600061033f83610cd6565b90915550600198975050505050505050565b60608060608060608061037f876001600160a01b031660009081526004602052604090206006015460ff1690565b6103c35760405162461bcd60e51b8152602060048201526015602482015274213abcb2b9103237b2b9903737ba1032bc34b9ba1760591b6044820152606401610227565b6001600160a01b038716600090815260046020526040808220815160e081019092528054829082906103f490610cff565b80601f016020809104026020016040519081016040528092919081815260200182805461042090610cff565b801561046d5780601f106104425761010080835404028352916020019161046d565b820191906000526020600020905b81548152906001019060200180831161045057829003601f168201915b5050505050815260200160018201805461048690610cff565b80601f01602080910402602001604051908101604052809291908181526020018280546104b290610cff565b80156104ff5780601f106104d4576101008083540402835291602001916104ff565b820191906000526020600020905b8154815290600101906020018083116104e257829003601f168201915b5050505050815260200160028201805461051890610cff565b80601f016020809104026020016040519081016040528092919081815260200182805461054490610cff565b80156105915780601f1061056657610100808354040283529160200191610591565b820191906000526020600020905b81548152906001019060200180831161057457829003601f168201915b505050505081526020016003820180546105aa90610cff565b80601f01602080910402602001604051908101604052809291908181526020018280546105d690610cff565b80156106235780601f106105f857610100808354040283529160200191610623565b820191906000526020600020905b81548152906001019060200180831161060657829003601f168201915b5050505050815260200160048201805461063c90610cff565b80601f016020809104026020016040519081016040528092919081815260200182805461066890610cff565b80156106b55780601f1061068a576101008083540402835291602001916106b5565b820191906000526020600020905b81548152906001019060200180831161069857829003601f168201915b505050505081526020016005820180546106ce90610cff565b80601f01602080910402602001604051908101604052809291908181526020018280546106fa90610cff565b80156107475780601f1061071c57610100808354040283529160200191610747565b820191906000526020600020905b81548152906001019060200180831161072a57829003601f168201915b50505091835250506006919091015460ff16151560209182015281519082015160408301516060840151608085015160a090950151939d929c50909a509850919650945092505050565b3360009081526004602052604081206006015460ff16156107ec5760405162461bcd60e51b8152602060048201526015602482015274213abcb2b91030b63932b0b23c9032bc34b9ba399760591b6044820152606401610227565b6040805160e0810182528881526020808201899052818301889052606082018790526080820186905260a08201859052600160c08301523360009081526004825292909220815180519293919261084692849201906109a6565b50602082810151805161085f92600185019201906109a6565b506040820151805161087b9160028401916020909101906109a6565b50606082015180516108979160038401916020909101906109a6565b50608082015180516108b39160048401916020909101906109a6565b5060a082015180516108cf9160058401916020909101906109a6565b5060c091909101516006909101805460ff19169115159190911790556002805490600061033f83610cd6565b606080606080606080610929876001600160a01b031660009081526005602052604090206006015460ff1690565b6109755760405162461bcd60e51b815260206004820152601860248201527f537570706c69657220646f6573206e6f742065786973742e00000000000000006044820152606401610227565b6001600160a01b038716600090815260056020526040808220815160e081019092528054829082906103f490610cff565b8280546109b290610cff565b90600052602060002090601f0160209004810192826109d45760008555610a1a565b82601f106109ed57805160ff1916838001178555610a1a565b82800160010185558215610a1a579182015b82811115610a1a5782518255916020019190600101906109ff565b50610a26929150610a2a565b5090565b5b80821115610a265760008155600101610a2b565b600060208284031215610a5157600080fd5b81356001600160a01b0381168114610a6857600080fd5b9392505050565b634e487b7160e01b600052604160045260246000fd5b600082601f830112610a9657600080fd5b813567ffffffffffffffff80821115610ab157610ab1610a6f565b604051601f8301601f19908116603f01168101908282118183101715610ad957610ad9610a6f565b81604052838152866020858801011115610af257600080fd5b836020870160208301376000602085830101528094505050505092915050565b60008060008060008060c08789031215610b2b57600080fd5b863567ffffffffffffffff80821115610b4357600080fd5b610b4f8a838b01610a85565b97506020890135915080821115610b6557600080fd5b610b718a838b01610a85565b96506040890135915080821115610b8757600080fd5b610b938a838b01610a85565b95506060890135915080821115610ba957600080fd5b610bb58a838b01610a85565b94506080890135915080821115610bcb57600080fd5b610bd78a838b01610a85565b935060a0890135915080821115610bed57600080fd5b50610bfa89828a01610a85565b9150509295509295509295565b6000815180845260005b81811015610c2d57602081850181015186830182015201610c11565b81811115610c3f576000602083870101525b50601f01601f19169290920160200192915050565b60c081526000610c6760c0830189610c07565b8281036020840152610c798189610c07565b90508281036040840152610c8d8188610c07565b90508281036060840152610ca18187610c07565b90508281036080840152610cb58186610c07565b905082810360a0840152610cc98185610c07565b9998505050505050505050565b6000600019821415610cf857634e487b7160e01b600052601160045260246000fd5b5060010190565b600181811c90821680610d1357607f821691505b60208210811415610d3457634e487b7160e01b600052602260045260246000fd5b5091905056fea2646970667358221220f2ba3b146098fe283292d018888262a8903076166d189d9d839073e354268f6964736f6c63430008090033",
  "linkReferences": {},
  "deployedLinkReferences": {}
}